:020000040800F2
:10000000E81200204901000881010008830100086E
:1000100000000000000000000000000000000000E0
:100020000000000000000000000000008701000840
:100030000000000000000000890100088B0100089A
:100040005B0100085B0100085B0100085B01000820
:100050005B0100085B0100085B01000893010008D8
:100060005B0100085B0100085B0100085B01000800
:100070005B0100085B0100085B01000895010008B6
:10008000B10100085B010008000000005B010008EE
:100090005B0100085B0100085B0100085B010008D0
:1000A0005B0100085B0100085B010008CD0100084E
:1000B0002D020008000000005B01000800000000A5
:1000C00000F002F800F030F80CA030C8083824180E
:1000D0002D18A246671EAB4654465D46AC4201D180
:1000E00000F022F87E460F3E0FCCB6460126334282
:1000F00000D0FB1AA246AB46334318470C5C000005
:100100002C5C00000023002400250026103A01D3B7
:1001100078C1FBD8520700D330C100D50B607047BF
:100120001FB51FBD10B510BD05F080FD1146FFF7CE
:10013000F7FF00F0ECF905F098FD03B4FFF7F2FFCC
:1001400003BC05F09DFD00000748804707480047B5
:10015000FEE7FEE7FEE7FEE7FEE7FEE704480549A7
:10016000054A064B70470000D5030008C10000088F
:10017000E80C0020E8120020E80E0020E80E002025
:10018000704700BFFEE77047704710B500F0DAF91E
:1001900010BD704710B50121880704F086FC0028C7
:1001A00005D00121880704F093FC00F0AFFB10BDDF
:1001B00010B50121524804F078FC002805D0012137
:1001C0004F4804F085FC00F03AFA10BD10B54D49D7
:1001D0004D4804F0E3FF002806D04A494A4805F09C
:1001E00004F802F057FF20E04849474804F0D6FFE2
:1001F000002806D04549444804F0F7FF02F038FFD4
:1002000013E04349404804F0C9FF00280DD040499D
:100210003D4804F0EAFF00223D493B4804F07EFFE0
:100220003C484078401C3B49487010BD10B53549EA
:10023000394804F0B3FF00282DD038484078401CDE
:10024000364948702F49344804F0CFFF334840788E
:1002500032498978884218DA30484178FF301D30B9
:10026000405C2D49203108812C4841788078401E1F
:10027000814244D100222349274804F04FFF012244
:100280002349254804F04AFF39E000221D4922484D
:1002900004F044FF33E01D491F4804F07FFF0028AD
:1002A0001BD01A491C4804F0A0FF1C481C38007FD2
:1002B000FF280EDA184820308088C1B217481C3851
:1002C000027F007F401CC3B214481C3803773830CB
:1002D000815406201149087111E00D490E4804F0BF
:1002E0005DFF00280BD00A490B4804F07EFF002276
:1002F0000749094804F012FF012002F064F810BD1C
:100300000004004007010700003801400501050016
:1003100006010600F40500200044004010080020FB
:100320000CB50020019000906C4800680121084342
:100330006A49086000BF69480068022108400090CF
:100340000198401C01900098002804D10521090261
:1003500001988842EFD161480068022108400028D6
:1003600002D00120009001E00020009011205C49A3
:1003700008605A48406859494860084640684860E3
:10038000084640680521C9040843544948600846A6
:1003900000680121090608435049086000BF4F4822
:1003A00000680121490608400028F8D04B48406801
:1003B0008008800049494860084640680221084397
:1003C0004649486000BF454840680C21084008285D
:1003D000F9D10CBD10B541480068012108433F49DF
:1003E0000860084640683F4908403C494860084664
:1003F00000683D4908403949086008460068012105
:100400008904884335490860084640683F2109044B
:100410008843324948600846C06A00090001C86242
:100420000846006BFF21543188432C490863084675
:10043000406B40084000486300208860FFF770FF71
:1004400010BDF8B500250024002600272348406889
:100450000C2108400546002D04D0042D06D0082D9F
:100460002AD107E021482249086029E01F48204995
:10047000086025E0194840680F21890408400446B7
:10048000164840680121090408400646A00C841C57
:10049000002E04D117486043154908600BE00F484F
:1004A000C06A0007000F471C3946104805F00EFBD4
:1004B00060430F49086003E00C480D49086000BF25
:1004C00000BF06484068F021084000090A490D5C59
:1004D00007480068E84006490860F8BD001002407F
:1004E000002002400CB8FFF8FFFFF6FE00127A0071
:1004F0000000002000093D000400002001B502E0DA
:100500000098401E009000980028F9D108BD10B551
:10051000FFF760FF01F07CFD02F02EFD01F066FEAA
:1005200001F0A6FE01F03CFE01F029FD002010BD07
:1005300001B535490098086000BF334800680028BD
:10054000FBD108BD30480068002804D02E48006860
:10055000401E2D490860704710B57D21C9002B4809
:10056000006805F0B3FA04462948844201D9012005
:100570000EE02002000A401E264948610321081FA0
:1005800000F00BF800202349886107200861002053
:10059000002801D000BFFEE710BD10B5002819DA11
:1005A0001D4A03071B0F083B9B089B00D25883077B
:1005B000DC0EFF23A3409A438B071B0E8407E40E37
:1005C000A3401A43144B0407240F083CA408A400BA
:1005D0001A5118E0114A03231B02D21883089B000A
:1005E000D2588307DC0EFF23A3409A438B071B0ED0
:1005F0008407E40EA3401A43084B032424021B196A
:100600008408A4001A5110BD14000020000000202E
:10061000FFFFFF0000E000E01CED00E000E100E073
:1006200010B500220121F94804F026FAF8480468C0
:1006300001221146F54804F01FFA204610BD10B5FE
:10064000F3480068401CF2490860F2480078401CFA
:10065000C0B2F049087005285FDB0020087002F086
:10066000F9FBED480088ED49884204DAEA48008841
:10067000401CE9490880EA480078401CC0B2E849BB
:100680000870142849DB00200870E6480078FF282D
:1006900004DAE4480078401CE2490870E248C07877
:1006A000FF2804DAE048C078401CDF49C870DF4802
:1006B0000078401CDD490870DD480078002809D02A
:1006C00008460078072805DB0020D9490870D7497B
:1006D00008700DE0D6480078002809D1D34800788A
:1006E000032805DB0120D24908700020CF4908709B
:1006F000D0480078401CC0B2CE49087005280CDBF9
:1007000000200870CC480078002803D00020CA4997
:10071000087002E00120C849087010BD1FB5C74924
:1007200003C9039102900020C549C88300243FE01B
:10073000E200C44BD2189188E200985803F015F9F2
:100740000121081A61006A4650526000BE49085AE9
:100750006100515A88420AD060006946085A610017
:10076000B94A5052FFF75CFFA100B84A5050FFF75A
:1007700057FFA100B54A5158401A610002AA515AC8
:10078000884213D960006946095AA01C4000AC4A4F
:100790001152A01C40001146085A002806D00846F5
:1007A000C08B0121A14008431146C883601C84B25C
:1007B000032CBDDB1FBD38B5002400210091A14AE8
:1007C0009189906803F0D1F8C507ED0F684600885D
:1007D00041084900294300919A4A918A106903F01F
:1007E000C4F8400002210840054668460088884356
:1007F000014629430091934A9188106803F0B5F8A7
:100800008000042108400546684600888843014668
:100810002943009168460488002C23D08C48008826
:10082000A04205D08A48048000207B49088035E03A
:1008300079480088052831DB7B480088A04207D032
:10084000794804800120784988708249087025E041
:1008500075488078012821D10320734988700020D1
:10086000C8701BE070488078012803D06E488078FB
:10087000032803D102206C4988700DE06A48807813
:10088000022804D100206849C870887004E0002064
:1008900065498870084604806D48048038BD624808
:1008A000807801280DD160480088012804D00228F2
:1008B00004D0042803D100E002E001E000E000BF22
:1008C00022E05948807803280ED157480088012833
:1008D00006D0022805D001210903401A02D102E006
:1008E00001E000E000BF0FE04F48807802280BD104
:1008F0004D480088022804D001210903401A01D183
:1009000001E000E000BF00BF7047704710B55248DB
:100910000078401C504908705048808D00283AD01B
:100920004E48808D401E81B24C4881854C480078ED
:10093000002818D048480078082809DB00204649DC
:100940000870484A918A1069012203F02CF82BE0C4
:1009500041480078042827DB424A918A1069002226
:1009600003F021F820E040480078002809D03D4AF3
:10097000918A1069012203F016F800203A490870A4
:1009800012E0384A918A1069002203F00CF8012025
:100990003549087008E0334A918A1069002203F053
:1009A00002F801203049087010BD10B500248DE018
:1009B000062C5FD162002D4B9A5A002A12D1E21701
:1009C000120F121912111E3252009A5A2046E317C2
:1009D0001B0F1B181B111B01E31A1A41D207D20F60
:1009E000002A09D0E200224BD2189188E2009858E0
:1009F000012202F0D8FF68E0E2001D4BD218918876
:100A0000E2009858002202F0CEFF5EE000040040B1
:100A1000B8000020D8000020BC000020FFFF00002C
:100A2000D9000020BE000020C4000020DB00002010
:100A3000BF000020DA000020C0000020005D000898
:100A40003801002064000020DC000020E8050020C0
:100A5000E2000020C8000020C1000020C8030020E0
:100A6000C20000208C000020E4000020C80200200A
:100A70002C0000206200F84B9A5A002A12D1E2178B
:100A8000120F121912111E3252009A5A2046E31701
:100A90001B0F1B181B111B01E31A1A41D207D20F9F
:100AA000002A09D0E200ED4BD2189188E200985854
:100AB000002202F078FF08E0E200E84BD2189188AB
:100AC000E2009858012202F06EFF641C072C00DA45
:100AD0006EE7002419E0E01D4000DF49085A0028B5
:100AE00009D0E200DE4BD2189188E200985801222A
:100AF00002F059FF08E0E200D94BD2189188E200D9
:100B00009858002202F04FFF641C022CE3DB10BD5A
:100B100010B50020D0494880C880888008810880AE
:100B200048818881FFF77CFDCE490968401ACE498B
:100B300088420ED9FFF774FDCA490860CB48007897
:100B4000002803D00020C949087002E00120C749ED
:100B50000870C1484030808F082828DAC3480078E0
:100B6000002807D00120BC494880C8800020888028
:100B7000088106E00020B8494880C88001208880AC
:100B80000881FFF74DFDBA490968401AB949884202
:100B900009D20020B0498881B748808C002818D13C
:100BA0000120088015E00120AB49888111E0FFF7A2
:100BB00037FDAC490860FFF733FDAD4908600120FF
:100BC000AA4908700020A4494880C880888008810C
:100BD0008881A948808C01280CD19F484030008F23
:100BE000002804D09C484030008F042803D1012005
:100BF0009949088086E098484030008F01281AD132
:100C0000FFF70EFD9D490968401AAF21890088420F
:100C100004D9FFF705FD9949086073E0FFF700FD6F
:100C200096490968401AFF21F53188426AD20120AD
:100C30008949088066E088484030008F05281AD12D
:100C4000FFF7EEFC8D490968401A7D21C9008842F2
:100C500004D9FFF7E5FC8949086053E0FFF7E0FCA1
:100C600086490968401AFF21F53188424AD201209D
:100C70007949088046E078484030008F022804D047
:100C800075484030008F06281AD1FFF7C9FC7B4910
:100C90000968401A4B21C900884204D9FFF7C0FCFB
:100CA000764908602EE0FFF7BBFC74490968401ADA
:100CB000FF212D31884225D201206749088021E09B
:100CC00065484030008F032804D063484030008FCF
:100CD000072817D1FFF7A4FC68490968401AFF21CB
:100CE0009131884204D9FFF79BFC6449086009E010
:100CF000FFF796FC61490968401AC82802D2012012
:100D000055490880FFF78CFC5D490968401A5D4928
:100D1000884203D201205049888008815648808C3F
:100D200003280BD101204C4908804880C88000204E
:100D300088800881FFF774FC514908605248C08ED2
:100D4000012817D0FFF76CFC04467D21C90004F090
:100D5000BDFE4B21C90088420CD900203E49488085
:100D6000C880888008810880488188810120C881E6
:100D70000020088210BDF8B504460D46164600272F
:100D800004F0D7FB342004F099FE01203F490860AD
:100D900000203F4908600EE03D49096889020819B2
:100DA00004F009FC042801D00020F8BD3848006890
:100DB000401C374908603648006834490968884251
:100DC00003D2344800780428E6D000270CE02988B4
:100DD000204604F06AFC042804D1A41CAD1C781C35
:100DE00087B201E00020E0E7B742F0DB04F0ADFBA2
:100DF0000120DAE710B5FFF713FC27490968401A0C
:100E00007D21C900884204D3FFF70AFC224908600B
:100E100000E010BD1848808C01285FD10E4840309A
:100E2000C08C002808D00C484030C08C401E81B2D5
:100E300009484030C18451E007484030808C002888
:100E40002CD005484030808C401E81B20248403092
:100E500081843B21C1842AE0C80200202C000020AC
:100E60008C000020E800002070170000F80000202F
:100E7000F0000020B80B000078010020F4000020F2
:100E8000EC00002088130000C8030020240000208C
:100E90001800002028000020100100200321F8483D
:100EA00081840021403001840821F6488187F4487C
:100EB0004030008C002811D00021F14840300184DE
:100EC000F048C030C08D401E81B2EE48C030C185B0
:100ED000142201462C31EC48FFF74DFF00BF98E784
:100EE00010B5E748808C002806D001281DD00228C4
:100EF00010D0032818D161E0E248808F082804DA76
:100F00000921E04881841E21C1840021DC48403051
:100F1000018400BF0120DB494039C88100200882DC
:100F20000021D848C030818567E00020D54940398C
:100F3000C88101200882D5490870D148403800890D
:100F4000002814D00021CF48C03081850120CD4930
:100F50004039C881002008820021CA488184C184A8
:100F60000321C74881840821C648818745E0FFF7EF
:100F700057FBC7490968401AFF21D73188420CD373
:100F8000FFF74EFBC24908600421BE48C03081858E
:100F90000020BC494039C8810FE0FFF741FBBC4944
:100FA0000968401A782808D3B648C030808D0028D8
:100FB00003D10120B3494039C8811EE00020B34964
:100FC0000870AF484038C08800280CD00021AC48D9
:100FD0008184AC48C03081850120AA494039C8814C
:100FE0000020088008E0AB49A648C0308185002079
:100FF000A4494039C881088200BF00BF10BD10B5A8
:10100000FFF76EFFFFF784FDFFF7CFFCFFF7F2FE5F
:1010100010BD10B59B48C030808E322806DB9E493B
:101020009848C030C1850021818624E09548C030B1
:10103000808EC0009949085A00281CD19148C030C0
:10104000848E15E08F48C030808E401C81B28D4860
:10105000C0308186808EC000904940184188894800
:10106000C030C185C08D002800D003E0601C84B270
:10107000322CE7DB00BF14228249EC318248FFF7B3
:101080007AFE8048C030C08D10BD10B57C48008FFE
:1010900083490988884230D07948008F8049088088
:1010A0007848818C7F4802F0B9FA7648C18C4F208D
:1010B000800102F0B3FA7348C030C18D7948203006
:1010C00002F0ACFA6E48808C012805D10021132073
:1010D000000202F0A3FA04E001211320000202F052
:1010E0009DFA6848018F6F48A03802F097FA65486A
:1010F000418F9920400102F091FA02F0CFFA604945
:101100004031888108468089232802D0262842D190
:1011100010E05B48808C00280BD15A48008F2930A2
:1011200081B2032002F090FA02F0E8F9022154485B
:10113000018730E05248808C00281CD15148808FB4
:10114000082818DA4F48C030C08D00280DD1FFF7AD
:1011500060FF002805D00121494881844030018486
:1011600018E006214648018714E0012144488184A3
:10117000403001840EE04248808C022803D10121D6
:101180003F48818406E03E48808C012802D102213C
:101190003B48818400BF00BF3948808C42490988A0
:1011A000884212D03648808C3F4908803448808C71
:1011B000012805D100211320000202F02FFA04E0DB
:1011C00001211320000202F029FA2E48808C3749B1
:1011D0000988884208D02B48808C344908802948E7
:1011E000818C304802F01AFA2648C08C30490988B0
:1011F000884209D02348C08C2D4908802148C18CE1
:101200004F20800102F00AFA1E48C030C08D2949E3
:10121000098888420BD01B48C030C08D2549088002
:101220001848C030C18D1F48203002F0F7F910BDBA
:1012300010B51348008F1A490988884206D0104813
:10124000008F174908800F48018F818702F026FA26
:101250000B4940318881084680893038030004F00A
:1012600041FD0A2B2F33373B3F4347060A4B0321EF
:101270000348018740E00121014801873CE000006C
:10128000780100200803002000700008C200002040
:101290000C010020102700007017000058040020E7
:1012A000D4000020B0130000FA000020FC00002051
:1012B000FE000020000100200021F94801871BE00A
:1012C0000121F748018717E00221F548018713E063
:1012D0000321F34801870FE00421F14801870BE067
:1012E0000521EF48018707E00621ED48018703E06B
:1012F0000721EB48018700BF00BFE948008FE9499B
:10130000098888420CD0E648008FE6490880E44806
:10131000008F293081B2032002F096F902F0EEF836
:1013200010BD10B5E048008FE049098888422AD0F6
:10133000DD48008FDD490880D948408F052803DA51
:101340000020DB49088002E00120D9490880D84804
:101350000088002809D00021D64802F05FF9012159
:10136000D448401E02F05AF908E00121D14802F0A9
:1013700055F90021CF48401E02F050F9CA484030CC
:101380008089CD49088002F089F9C74940318881B8
:10139000C948008800283FD10846808900283BD0F2
:1013A00008468089062821D0252804D028282ED058
:1013B000292830D127E0BE480088002809D00A211A
:1013C000032002F041F902F099F80521B64801879F
:1013D00008E00521032002F037F902F08FF804211C
:1013E000B14801870020B549088014E0AC48008F5F
:1013F000293081B2032002F027F902F07FF80221A0
:10140000A948018707E00020A949088003E00120DE
:10141000A749088000BF00BFA34840308089A64983
:101420000880A7480088A249098888421AD0A048A5
:101430000088A34908809E480088002809D0002120
:101440009C4802F0EBF801219A48401E02F0E6F8B1
:1014500008E00121974802F0E1F800219548401E7C
:1014600002F0DCF810BD10B502F018F98E494031D9
:1014700088810846808943282ED006DC40281FD06A
:10148000412821D042282FD122E0442828D04928C1
:1014900009D0502828D10321834801878748018833
:1014A0007F48418720E07E48008F293081B20320A9
:1014B00002F0CAF802F022F802217B48018713E00B
:1014C00000207E4908800FE001207C4908800BE065
:1014D00002207A49088007E003207849088003E069
:1014E00004207649088000BF00BF10BD10B502F08F
:1014F000D5F86D49403188810846808948282CD02C
:1015000006DC45281DD046281FD0472829D120E0D9
:10151000492809D0502824D103216348018767480E
:1015200001885F4841871CE05D48008F293081B207
:10153000032002F089F801F0E1FF02215A480187F7
:101540000FE005205D4908800BE006205B4908801C
:1015500007E007205949088003E008205749088020
:1015600000BF00BF10BD38B501240020009001204D
:101570004B494039C8815221032002F065F801F03F
:10158000BDFF6A460221A520000102F033F844485D
:10159000C030818EA320000102F040F859E002F033
:1015A0007DF841494031888108468089802835D1BD
:1015B0003B48C030808EC0004249401840680099C6
:1015C000884221D100213648C030808EC0003D4A7B
:1015D00011523348C030808E401C81B23048C03038
:1015E0008186808EC0001146401841882C48C0304A
:1015F000C185142201462C313348FFF7BCFBD222AF
:1016000030493248FFF7B7FB012127480187032003
:1016100002F01AF801F072FF002400E000BF00BFE2
:10162000FFF77CF801F003FF012001F0C6FBFFF794
:10163000BCF92748007800280BD000202449087006
:101640000846406800906A460221A520000101F08A
:10165000D1FF002CA3D138BD10B51348008F030073
:1016600004F040FB071705080B0E11141700FFF7D5
:101670000CFD12E0FFF7DCFD0FE0FFF752FE0CE07F
:10168000FFF7F1FE09E0FFF731FF06E0FFF76BFF20
:1016900003E001210448018700BF00BF10BD000026
:1016A000080300200201002078010020D40000205F
:1016B000040100200914000008010020D6000020C9
:1016C0000601002058040020007000080074000883
:1016D0001401002038B50124002000900025FE48A8
:1016E000FE4908600120FE49C88100204880C8806A
:1016F0005321032001F0A8FF01F000FF6A460221F8
:10170000A120000101F076FF2DE001F0C7FFF549AF
:1017100088810846808980280AD10024EF48006823
:1017200000680099884201D1012500E0002500E011
:1017300000BF00BFFEF7F2FF01F079FE012001F0CB
:101740003CFBFFF732F9E848007800280BD0002076
:10175000E54908700846406800906A460221A120C9
:10176000000101F047FF002CCFD1284638BDDA49EF
:10177000DA4A1160DD491268116000200FE0002193
:10178000C200DB4B99526421C200D2185180D74964
:10179000C91F4118C200D2185160411CC8B232287A
:1017A000EDDB7047F0B5A9B0012600202890002598
:1017B0000027C948C9490860002414E0E00014A9C2
:1017C00041180A2068430019C000C94A821805CA96
:1017D00005C1E00069464018E10014AA8A1806CA4B
:1017E00006C0601CC4B20A2CE8DBFFF773FF0028B8
:1017F0007BD04A21032001F027FF01F07FFE002467
:1018000029E00A226A431219511C51225201A018E0
:1018100001F004FFE20014AB995A22010B231B02D2
:10182000D01801F0FBFEE20014ABD218518822015F
:10183000B04BD01801F0F2FEE10014ABC9180A1D3C
:101840002101AC4B5B1CC818022101F0D3FE01F052
:1018500055FE601CC4B20A2CD3DBA04800680068A7
:10186000289028AA0221A120000101F0C3FECEE1A8
:1018700001F014FF9B498881084680897038030075
:1018800004F030FA1396A2AEBAC6D2DEEAF9F3F249
:10189000F2F2F2F2F20B3464F20000240CE00A20BF
:1018A00068430019C00092494018E10014AA8A1840
:1018B00006CA06C0601CC4B20A2CF0DB00268749A9
:1018C000289809680860142283490C398A48FFF770
:1018D00052FAD22286498948FFF74DFA00210320A7
:1018E00001F0B2FE01F00AFEDEE094E100240CE01B
:1018F0000A2068430019C0007D494018E10014AA7D
:101900008A1806CA06C0601CC4B20A2CF0DB002D7F
:1019100001D0681EC5B2002415E0E00014A94118EA
:101920000A2068430019C000714A821805CA05C11F
:101930000A226A431219511C51225201A01801F0C7
:101940006DFE601CC4B20A2CE7DBADE000240CE0A5
:101950000A2068430019C00065494018E10014AA34
:101960008A1806CA06C0601CC4B20A2CF0DB042D1B
:1019700002DA681CC5B200E00025002415E0E00092
:1019800014A941180A2068430019C000584A821857
:1019900005CA05C10A226A431219511C512252017B
:1019A000A01801F03BFE601CC4B20A2CE7DB7BE010
:1019B00010A8008A002803D0002010A9088202E0A5
:1019C000012010A908826FE010A8008B002803D026
:1019D000002010A9088302E0012010A9088363E019
:1019E00010A8008C002803D0002010A9088402E071
:1019F000012010A9088457E010A8008D002803D00A
:101A0000002010A9088502E0012010A908854BE0FC
:101A100010A8008E002803D0002010A9088602E03C
:101A2000012010A908863FE010A8008F002803D0ED
:101A3000002010A9088702E0012010A9088733E0E0
:101A400020A80088002803D0002020A9088002E0F8
:101A5000012020A9088027E020A80089002806D0BE
:101A6000002020A9088105E01DE010E003E001202E
:101A700020A9088118E020A8008A002803D00020AF
:101A800020A9088202E0012020A908820CE020A8F9
:101A9000008B002803D0002020A9088302E0012049
:101AA00020A9088300E000BF00BFFEF737FE01F069
:101AB000BEFC012001F081F9FEF777FF0A480078AB
:101AC000002836D000200849087008464088A12127
:101AD000090188421ED113E000040020B400002058
:101AE000C8020020B801002014010020EB130300FD
:101AF00058040020010B000000700008007400086A
:101B0000FE484068289028AA0221A120000101F087
:101B100071FD0EE0F9498978F94A891AC8B2C117EE
:101B2000090F09180C11F5484068E10014AA89183A
:101B30004860F4480078002811D00020F14908706E
:101B40008978EF4A521E891AC8B2C117090F0918BD
:101B50000C11EC488088E10014AA89184880002400
:101B600053E0E0006946085AE10014AA515A88423D
:101B70000ED0E20014AB995A22010B231B02D0189D
:101B800001F04CFDE00014A9085AE1006A465052E9
:101B9000E000694640184088E10014AA8918498885
:101BA000884212D0E20014ABD21851882201D44BE3
:101BB0005B1ED01801F032FDE00014A940184088E7
:101BC000E1006A46891848800127E000694640180C
:101BD0004068E10014AA89184968884211D0E100E0
:101BE00014ABC9180A1D2101C54BC818022101F008
:101BF00001FDE00014A940184068E1006A46891818
:101C0000486001F07BFC601CC4B20A2CA9DB002EEA
:101C100000D02DE605E00021032001F015FD01F0C4
:101C20006DFC002F0BD0B8484188B848C185002111
:101C30008186142201462C31B548FFF79CF829B063
:101C4000F0BD38B50124B34D002000900120B24909
:101C5000C88100204880C8805021032001F0F4FC96
:101C600001F04CFC6A4602210520400201F0C2FC52
:101C700044E001F013FDA949888108468089802845
:101C800021D1A449009888421CD101219F48C186D6
:101C90000021032001F0D8FC01F030FC0024FFF704
:101CA00066FD994841889948C185002181861422A2
:101CB00001462C319648FFF75EF8D22292499848A7
:101CC000FFF759F800E000BF00BFFEF727FD01F065
:101CD000AEFB012001F071F8FEF767FE874800783F
:101CE00000280BD000208549087008464068009005
:101CF0006A4602210520400201F07CFC002CB8D18C
:101D000038BDFEB5012700200290002400260025E2
:101D1000A6E00298002804D001281DD0022839D15D
:101D200036E07E4880380089002808D001200290E3
:101D300000217648818501207749C88107E00A2182
:101D40007248818500207449C881012008820120E1
:101D500071494880C88020E070488038C0880028D9
:101D60000BD00220029000216848818501206A4939
:101D7000C88100204880C88009E00A216348818525
:101D800000206549C881088201204880C88004E09D
:101D9000002702E00020029000BF00BF01F07EFC9F
:101DA0005E49888108468089602804D061280ED069
:101DB000622833D116E00026002D07D1002C01D077
:101DC000032C02D1601C84B200E0002427E0002430
:101DD000002D01D1701C86B2052E02DBFFF7E2FC5C
:101DE00000261CE00026002D09D1012C03D0022C76
:101DF00001D0042C02D1601C84B200E00024052C28
:101E000006DB4248C08E012802D0FFF71AFF0024EB
:101E1000052C02DB00213D48C18500E000BF00BF6A
:101E20003E488589FEF77AFC01F001FB012000F0B5
:101E3000C4FFFEF7BAFD01F0D7FA002810D07D21CB
:101E4000C9003848006803F041FE80B209210090C3
:101E500003F046FE88B201460190334801F0DEFBF4
:101E6000002F00D055E70121032001F0EDFB01F028
:101E700045FB012129484038018700212648403090
:101E80008184C1840821818700212448018440384D
:101E900081841E48808E2549884212DDFFF767FC49
:101EA000194841881948C1850021818614220146BC
:101EB0002C311748FEF75FFFD22213491848FEF76E
:101EC0005AFF1248808EC0000F49085A002831D0AE
:101ED0000E48C18D808EC0000B4A80184088814218
:101EE00028DD0A48808EC000114640184188074806
:101EF000C185142201462C31054819E01401002047
:101F0000020B00001C01002058040020C803002020
:101F100000700008DAC73301C8020020B8010020B1
:101F200000740008B800002001100000FF8F0000BE
:101F3000FEF721FFFEBD10B52B480078002806D023
:101F40002A4A91881068012201F02DFD05E0274AF8
:101F500091881068002201F026FD10BD30B50346BF
:101F600000240120224D287005E0188808809B1C61
:101F7000891C601C84B29442F7DB012030BD002430
:101F800007E0002061001B4A505261001A4A50527B
:101F9000641CC82CF5DB142218491948FFF7DEFF32
:101FA000D22218491848FFF7D9FF00F081FF01F04D
:101FB000ACF800201549086065200E494880FFF7FD
:101FC000A0FE10E0FEF7AAFBFEF7F5FBFEF767FCAC
:101FD000FFF7B1FFFFF713F8FFF73EFB01F027FA19
:101FE000012000F0EAFEEDE7C00000207C000020A8
:101FF0002900002038010020C8020020F40300203E
:10200000007000085804002000740008B800002088
:102010001CB501212720400401F0D1FF01200090D0
:102020000321684601710021C17169460920C0067B
:1020300001F038FC02200090002168460171022165
:1020400041710121C17169460920C00601F02AFCD5
:10205000012202210920C00601F0ADFC012203216A
:102060000920C00601F0A7FC0C2000900221684660
:102070000171002181710121C17103214171694602
:102080000920C00601F00EFCF020009001216846F6
:102090000171022141710121C17169460920C00607
:1020A00001F000FC01220921C80601F084FC012294
:1020B0000A210920C00601F07EFC032040020090A6
:1020C000022168460171002181710121C171032142
:1020D000417169460920C00601F0E4FB0320C002FB
:1020E0000090002168460171022141710121C171F6
:1020F00069460920C00601F0D5FB0120C00300900D
:10210000012168460171022141710121C1716946B5
:102110000920C00601F0C6FB1C480090012168465A
:102120000171022141710121C1716946184801F014
:10213000B9FB1848009000216846017102214171E5
:102140000121C1716946124801F0ACFB0720400330
:102150000090012168460171022141710121C17184
:1021600069460D4801F09EFB03200090012168465E
:102170000171022141710121C1716946074801F0D5
:1021800091FB0321054801F00CFC1CBDFBF3000092
:1021900000040048040C0000000800480014004837
:1021A00008B50F216846017000214170012181703E
:1021B00001F02EFC102168460170002141700121C0
:1021C000817001F025FC1B216846017000214170DF
:1021D0000121817001F01CFC1C2168460170002166
:1021E00041700121817001F013FC08BD0EB5012181
:1021F000022001F000FF072001901B496846018082
:102200000021018141806946184801F0BDFF01218C
:10221000164802F047FC01221146144802F02CFC3B
:102220000121124802F035F80121084601F0E3FED1
:10223000272001900C4968460180002101814180DE
:1022400069460120800701F09FFF0121880702F005
:1022500029FC01221146900702F00EFC012188079B
:1022600002F017F80EBD00006F17000000040040D8
:1022700000B587B00121880301F0AFFE4B200002BA
:102280000190002002900390049006900C2005908D
:1022900001A91E4802F014FD1D491C4802F07CFFF4
:1022A00001221B49194802F039FF0121174802F0A9
:1022B000A0FD0121480401F09EFE4B200002019088
:1022C000002002900390049006900C20059001A934
:1022D000104802F0F5FC0E490E4802F05DFF0122A5
:1022E0000B490C4802F01AFF01210A4802F081FD57
:1022F00007B000BD0A4600210168074B19400B4694
:10230000134319468BB20360704700000038014048
:102310000701070000440040F3FF000087229200FD
:102320004243F74BD2189172704710B50446002112
:10233000872080006043F24A80184170002C02D050
:10234000012C3ED11EE00C21EE48FFF7D3FF4021C7
:10235000EC4802F021FF872080006043E84A8018A3
:10236000FF301D30872292006243E54BD21852782D
:10237000815CE44802F0F4FD0122E349E14802F007
:10238000CDFE1EE00821E148FFF7B4FF4021DF4801
:1023900002F002FF872080006043D94A8018FF3096
:1023A0001D30872292006243D54BD2185278815C4F
:1023B000D64802F0D5FD0122D349D44802F0AEFE42
:1023C00000BF00BF10BD38B50446002C02D0012C60
:1023D0001CD10DE00C21CB48FFF78CFFC94802F05F
:1023E000C3FD00900122CA49C64802F097FE0DE0E5
:1023F0000421C648FFF77EFFC44802F0B5FD0090F7
:102400000122C349C14802F089FE00BF00BF00217C
:10241000872080006043BA4A115438BD02460846FE
:10242000CB171B0F1B181B111B01CB1AD9B287200E
:1024300080005043B24BC018C0890841C007C00F8C
:10244000704710B50A46CB171B0F9B181B111B01B9
:10245000CB1AD9B2872292004243A94BD218D28913
:1024600001238B401A4393B2872292004243A44C2B
:102470001219D38110BD002008E0002287218900B5
:1024800041439F4BC918CA81411CC8B20428F4DBE0
:1024900070470146872080004843994A8018407A57
:1024A000704730B502460B469A4812E01478521C29
:1024B000604000210BE0C407E40F002C03D044105F
:1024C000954D6C4000E0441020464C1CE1B20829B8
:1024D000F1DB1C465D1EEBB2002CE7D130BD18B518
:1024E0000446217FFF201D300155617F401C0155AE
:1024F000E07A002819D1A1782046FF301D30FFF77F
:10250000D0FF009068460178A278501CA070204649
:10251000FF301D30815468464178A278501CA0706D
:102520002046FF301D30815429E0608B401C6083C1
:10253000FF201E30005D80210843FF211E31085519
:10254000E17AFF201F3001550320A070A1782046BA
:10255000FF301D30FFF7A5FF009068460178A27894
:10256000501CA0702046FF301D30815468464178D1
:10257000A278501CA0702046FF301D30815418BD39
:1025800001462120405C20235B5C1B02184302466D
:102590000B782220405C0930834201D00320704731
:1025A000012A01DA0320FAE77B2A01DD0320F6E79E
:1025B0000020F4E701462120405C20235B5C1B02E5
:1025C000184302460B782220405C0930834201D038
:1025D00003207047012A01DA0320FAE77D2A01DD92
:1025E0000320F6E70020F4E701460878082801D028
:1025F000032070470020FCE701462120405C202397
:102600005B5C1B02184302460878082801D00320AF
:102610007047002A05D0FF200002824201D003202B
:10262000F6E70020F4E701462120405C20235B5CB4
:102630001B02184302460878082801D0032070477F
:10264000012A01DA0320FAE77D2A01DD0320F6E7FB
:102650000020F4E701462120405C20235B5C1B0244
:10266000184302460878082801D003207047012A41
:1026700001DA0320FAE77D2A01DD0320F6E70020D6
:10268000F4E770B504460D4629462046FFF709FFDA
:102690000646002E01D1012070BD0020FCE730B5B8
:1026A00004460D462078032806DB217820461C309E
:1026B000FFF7E7FF002804D1A08A401CA082002079
:1026C00030BD208A401C2082207F002803D1E08A70
:1026D000401CE08204E0207FA84201D00020EFE708
:1026E000208B401C20830020E0720120E8E7FCB52D
:1026F0000446A17A2046FFF7D2FF00280ED1FCBD88
:10270000F4050020003801400701070000440040A4
:1027100005010500FFFF000001A00000E77FA17F89
:1027200009020F432120065D2021095D09020E43A5
:10273000B81980B20190607F05287DD008DC01289F
:102740000DD0022879D0032878D0042877D19EE1D3
:10275000062875D00F2874D01028F7D1E7E220465C
:10276000FFF778FFE072E07A002800D01BE33146E3
:10277000F217520F5218D210D200B21A05D13046B9
:10278000C217520F1218D21005E0F217520F921909
:10279000D210521C0096FF231F331A550320A0703D
:1027A000002508E00021A07842192046FF301D30A6
:1027B0008154681C85B2FF201F30005DA842F1DC07
:1027C000002F55DB192189010198884250DC002532
:1027D0004BE02846E917490F0918C910A2788A1852
:1027E0002146FF311D31895C4910EA17520F12183A
:1027F000D210A378D2182346FF331D3399547A1987
:102800001146CA17120F521812115200FA4B9A5A57
:102810007B191846C3171B0F1B181B111B01C31A6A
:102820001A41D207D20F002A1DD02846E917490FB6
:102830000918C910A27805E066E141E0EAE0B1E2DA
:10284000C9E1F4E18A182146FF311D31895C8022FB
:102850001143EA17520F1218D210A378D218234648
:10286000FF331D339954681C85B2B542B1DB02E0D9
:102870000220E07297E2A178FF201F30005D081867
:10288000A0703046F117490F0918C910C900711A14
:1028900015D0F117490F0918C910C900711A08227B
:1028A000511A8EB2A078401E2146FF311D31085CBE
:1028B0003041A178491E2246FF321D32505472E247
:1028C0002046FFF7C7FEE072E07A002800D06AE2F7
:1028D000F217520F9219D210D2000096B21A05D1F7
:1028E0003146CA17520F5218D21005E03046F2177F
:1028F000520F1218D210521CFF231F331A550320F7
:10290000A070002508E00021A07842192046FF3081
:102910001D308154681C85B2FF201F30005DA84225
:10292000F1DC002F4EDB192189010198884249DC36
:10293000002544E02846E917490F0918C910A27874
:102940008A182146FF311D31895C4910EA17520F60
:102950001218D210A378D2182346FF331D3399548E
:102960007A191146CA17120F521812115200A34BAE
:102970009A5A7B191846C3171B0F1B181B111B01F2
:10298000C31A1A41D207D20F002A16D02846E917D7
:10299000490F0918C910A2788A182146FF311D3144
:1029A000895C80221143EA17520F1218D210A378C3
:1029B000D2182346FF331D339954681C85B2B542A3
:1029C000B8DB02E00220E072EDE1A178FF201F30C9
:1029D000005D0818A0703046F117490F0918C9109A
:1029E000C900711A15D0F117490F0918C910C9008B
:1029F000711A0822511A8EB2A078401E2146FF316A
:102A00001D31085C3041A178491E2246FF321D323B
:102A10005054C8E12046FFF706FEE072E07A002835
:102A200000D0C0E17006010EFF201F3001550320C9
:102A3000A070002F21DB0198C8281EDC002519E0BA
:102A4000781940006C49085A0112A0786A0082186F
:102A50002046FF301D3081547819400066490A5CD9
:102A6000A07869004018401C2146FF311D310A54EE
:102A7000681C85B2B542E3DB02E00220E07292E11D
:102A8000A178FF201F30005D0818A0708BE1204660
:102A9000FFF7C9FDE072E07A002800D083E17006FC
:102AA000010EFF201F3001550320A070002F21DBF5
:102AB0000198C8281EDC002519E0781940004F490C
:102AC000085A0112A0786A0082182046FF301D3093
:102AD00081547819400049490A5CA078690040187F
:102AE000401C2146FF311D310A54681C85B2B54295
:102AF000E3DB02E00220E07255E1A178FF201F3005
:102B0000005D0818A0704EE12046FFF775FDE072E9
:102B1000E07A002800D046E1002F45DB1920800133
:102B2000874241DA002E1DD13846C117090F091816
:102B300009114900304A515A3A460092D217130FF0
:102B4000009A9A1812111301009AD31A01229A407E
:102B500091433846C217120F121812115200264B19
:102B6000995224E0FF200002864220D13846C11746
:102B7000090F0918091149001F4A515A3A46009293
:102B8000D217130F009A9A1812111301009AD31A30
:102B900001229A4011433846C217120F121812111F
:102BA0005200154B995202E00220E072FBE0A17F37
:102BB000FF201F300155E17F401C01552020015DA1
:102BC000FF20213001552120015DFF2022300155D9
:102BD0000620A070E7E02046FFF706FDE072E07AED
:102BE000002800D0DFE0002F0ADBC82F08DA3846C3
:102BF000400001490E5206E0C802002038010020C2
:102C00000220E072CFE0A17FFF201F300155E17F5D
:102C1000401C01552020015DFF202130015521205D
:102C2000015DFF20223001550620A070BBE0204648
:102C3000FFF7C0FCE072E07A002800D0B3E0002F7C
:102C40005EDB192189010198884259DC002554E096
:102C5000EA17520F5219D210D21D23461C339A5C28
:102C60002846EB175B0F1B18DB10DB00EB1A1A4131
:102C7000D207D20F002A1FD079190846C117090FB1
:102C8000091809114900B84A515A7A190092D21705
:102C9000130F009A9A1812111301009AD31A0122E5
:102CA0009A4011437A191046C217120F12181211C6
:102CB0005200AD4B99521EE079190846C117090F11
:102CC000091809114900A84A515A7A190092D217D5
:102CD000130F009A9A1812111301009AD31A0122A5
:102CE0009A4091437A191046C217120F1218121106
:102CF00052009D4B9952681C85B2B542A8DB02E098
:102D00000220E0724FE0A17FFF201F300155E17FDC
:102D1000401C01552020015DFF202130015521205C
:102D2000015DFF20223001550620A0703BE02046C7
:102D3000FFF726FCE072E07A002800D033E0002F95
:102D400019DB0198C82816DC002511E0680008305E
:102D500021461C31085C6900C91D22461C32515CA9
:102D60000902084379194900804A5052681C85B20B
:102D7000B542EBDB02E00220E07214E0A17FFF200D
:102D80001F300155E17F401C01552020015DFF20CF
:102D9000213001552120015DFF2022300155062000
:102DA000A07000E000BF00BF207F002800D1A6E493
:102DB0002046FFF794FB0120A1E470B5054687206B
:102DC000800068436A494418607A002806D00328C6
:102DD0000AD0042825D0052833D128E003206072CA
:102DE0007D204001E08032E02078002813DD20794A
:102DF000002810D12046FFF77AFC002806D01420C6
:102E00002072042060720020207004E000206072B4
:102E10002846FFF7D8FAE088002801D10520607223
:102E200015E02846FFF781FA002060720FE00020CD
:102E30006072608A401C608200212846FFF701FB17
:102E400005E0002060722846FFF7BDFA00BF00BF12
:102E5000607A70BD70B5002518E087208000684357
:102E6000434944182079002802D02079401E20715F
:102E7000E088002802D0E088401EE080207A002808
:102E800002D0207A401E2072681CC5B2022DE4DBFD
:102E90003748007A002805D001221146354800F055
:102EA00082FD04E000220121324800F07CFD70BD6B
:102EB00070B500262AE08720800070432C49441812
:102EC000002020706070A0700620207100206072C9
:102ED000E0720120A0720020A081E0812082608247
:102EE000A082E08220836083002508E00021204644
:102EF0001C304155FF3001304155681C85B2FF2D13
:102F0000F4DDF0B2FFF75FFA701C86B2022ED2DB5E
:102F100070BD30B504460D46208A401C2082002D2D
:102F200007D1E08A401CE082208B401C20830120D6
:102F300030BD2078032806DB217820461C30FFF7BF
:102F4000A0FB002804D1A08A401CA0820020EFE74B
:102F5000207FA84201D00020EAE7208B401C20837C
:102F60000020E0720220E3E738010020C8020020C0
:102F7000F40500200014004800B593B0384802F072
:102F80003DF90121480401F01AF80121480201F03D
:102F900024F80121084601F012F8012000900321D5
:102FA000684601710021C17169460920C00600F020
:102FB00079FC2C4800F07CFB2948403002902A48DC
:102FC00003900020049004200590002006908020AB
:102FD0000790400008908000099020200A9000028D
:102FE0000B9000200C9002A91E4800F0ADFB0121BF
:102FF0001C4800F0D3FB0221194802F02DFA0121F0
:10300000174802F01DFA0DA802F01AF900200D90E1
:10301000012108A8017600200F9011900420129041
:103020000DA90F4802F0F8F8052201210C4802F022
:10303000A5F90B4802F0D8F90121094802F000FA7D
:103040000121074802F004F900BF0849044802F0D2
:1030500015FA0028F9D0024802F0E9F913B000BDD2
:10306000002401400800024060010020010000012E
:1030700010B5F94C2078FF280BDA04202071F748AE
:1030800001F072FFC1B22278501C207020461C3023
:10309000815410BD10B5F04C6078401C60706078B1
:1030A000A178884217DA62782046FF301D30815CB3
:1030B000EA4801F055FF6178A078401E81420FD1A7
:1030C0000022E749E54802F029F80122E549E348F2
:1030D00002F024F804E00022E149E04802F01EF882
:1030E00010BD10B5E0480022027042708270C270BC
:1030F000002107E04A1CD4B214224A43031D9C5409
:103100004A1CD1B21E29F5DB10BD10B5D24C0120EE
:10311000A07200206072E081FFF7E3FF10BDD34A88
:10312000904206D10122D24B1A701A4691805080EB
:1031300000E000BF0122CE4B1A701A4691805080E9
:10314000704770B50446207F4F2806D1607F4B281A
:1031500003D10120C749087070BDE07F832801D0EA
:103160000020F9E72120065D2021095D09020E43B8
:103170002420055D2321095D09020D43BB4931313E
:10318000701A8E422DD014DCBB49701A8E4224D0A6
:1031900008DC012E1CD005204002301A1BD010285C
:1031A0003CD119E0B22819D0C22818D0D22835D184
:1031B00016E0402819D006DC102813D0202812D0A1
:1031C00030282BD110E0502810D0602826D10EE0F6
:1031D000AA48058027E000BF00BF00BF00BF00BFB6
:1031E00000BF00BF00BF00BF00BF00BF00BFA448BA
:1031F00046800120A2490870084645608088000486
:1032000048602620005D2521095D09020843054626
:103210009B48406828439A49486004E02946304664
:10322000FFF77DFF00BF00BF012095E710B58E4876
:103230008278002A00D110BD8278012A1ADD027836
:1032400014235A43031D995C427814235A43031DE7
:103250009C5C027814235A43031D9C5404784278E2
:1032600014235A43031D9C54C27803789A4200D118
:10327000C17001708278521E827000BFDBE710B50A
:103280001346D40FE41864106400141B0BD108E03B
:103290004B780370401C0B780370401C891C931EF4
:1032A0009AB2002AF4D110BDF8B504460D46AA2101
:1032B000FF201D3001555521401C0155687880289C
:1032C00004D0822819D0832867D151E02E79B01C10
:1032D000C1B2FF201F3001558021401C0155A97843
:1032E000401C0155A8890112FF2022300155297B7D
:1032F000401C0155701DA07050E028794006060E54
:10330000F01CC1B2FF201F3001558221401C015525
:1033100068880112FF2021300155A978401C015511
:10332000A868002819D032462046FF302330A9680B
:10333000FFF7A5FFA8680768390EFF202330015565
:103340003802010EFF20243001553804010EFF2001
:1033500025300155401C075507E0A8890112FF20C0
:1033600023300155297B401C0155B01DA07015E08C
:103370000421FF201F3001558321401C015568881E
:103380000112FF2021300155A978401C01552979EF
:10339000401C01550720A07000E000BF00BFFF20C7
:1033A0001F30015D2046FF302030FFF77AF8009093
:1033B000FF201F30005D801CC1B2FF201F3001556F
:1033C00068460178A278501CA0702046FF301D305E
:1033D000815468464178A278501CA0702046FF3086
:1033E0001D3081540120F8BD1F488078002801D18C
:1033F000012070470020FCE770B5FFF7F5FF0028BB
:1034000001D0002070BD18480078142148431649A7
:10341000091D4518104C291D2046FFF745FF0028BF
:1034200001D00120EEE7FFF701FF0020EAE710B529
:10343000094C607A030002F055FC06042D25443443
:103440004144FFF7D9FF002805D00020A0810220C9
:1034500060720420E08037E0F4050020003801406D
:1034600007010700060106002C0A0020010B0000DE
:103470001C01002024010020500A0000220100202D
:1034800014010020E088002802D10120607200E0D1
:103490001AE000BF00206070FEF747FF0420607252
:1034A00012E06078A178884207DBFFF7BFFE0020BA
:1034B0006072142020720120E08005E0002060721C
:1034C00002E00020607200BF00BF2078002802DD0B
:1034D0002079002802D02078FF280EDB2046FFF755
:1034E00030FE002804D0142020720020E08102E089
:1034F0000020FEF768FF0020207010BD10B507E027
:10350000FFF795FFFFF770FF002801D0012010BDE5
:10351000F6E7654880781E2801DB0120704700200F
:10352000FCE7614880787047F3B50B465E49FFF7CA
:103530005BFF002801D04A7846E0FFF7EAFF002849
:1035400011D0009800280CD1C8784C78A04201D145
:103550000020FCBDC878142460430C1D225CCA7096
:1035600032E00020F5E70098002827D1C8784C7891
:10357000A04207D14878142460430C1D225C4A7095
:10358000CA7021E04878142460430C1D225C14208A
:103590005043255C4878142460430C1D2554C8789A
:1035A000142460430C1D255C142050432554C87816
:1035B000142460430C1D2254CA7005E0487814247A
:1035C00060430C1D225C4A705D78142050430C1D32
:1035D000001945701420504300191C1DF0CC001D2B
:1035E000F0C0FFF796FF002802D18878401C887051
:1035F0000120AEE770B585B006460C4615460121A0
:1036000068464170017182214171C6800481039531
:1036100069460020FFF788FF05B070BD30B585B062
:1036200005460C46012168464170017182214171B5
:10363000C580012101810021039104826946002097
:10364000FFF772FF05B030BD30B585B005460C46BA
:10365000012168464170017180214171C5800221BC
:10366000018100210391048269460020FFF75CFF7D
:1036700005B030BD30B585B005460C460121684621
:103680004170017183214171C58004810021039142
:1036900069460020FFF748FF05B030BD03490888A0
:1036A0000021024A118070472C0A002022010020CC
:1036B0000168584A11400160002101604160816049
:1036C000C1605549884208D15349083949680F22D9
:1036D0001143514A083A516035E04F49143188424C
:1036E00008D14D4908394968F02211434A4A083A3D
:1036F000516028E048492831884209D146490839B3
:1037000049680F2212021143434A083A51601AE0F5
:1037100041493C31884209D13F49083949680F2263
:10372000120311433C4A083A51600CE03A495031C7
:10373000884208D13849083949680F2212041143D8
:10374000354A083A5160704710B500220268334B81
:103750001A400C6A8B6823430C6923434C6923434A
:103760008C692343CC6923434C6A23438C6A2343EB
:103770001A430260CB6843600B6883604B68C36088
:1037800010BD0021016041608160C1600161416143
:103790008161C1610162416281627047002904D088
:1037A000026801231A43026003E00268194B1A40C1
:1037B00002607047416070470146486880B27047B8
:1037C000002A03D003680B43036002E003688B43C5
:1037D00003607047014600200F4A083A12680A4009
:1037E000002A01D0012000E0002070470A49083972
:1037F0004860704701460020074A083A12680A40AC
:10380000002A01D0012000E0002070470249083959
:1038100048607047FEFF0000080002400F80FFFF75
:1038200010B504460920C006844209D1012148048C
:1038300000F0EFFB00210120400400F0EAFB30E043
:103840006E48844208D10121000200F0E2FB002111
:10385000200200F0DEFB24E06948844208D1012107
:10386000000200F0D6FB0021200200F0D2FB18E09D
:103870006448844209D10121080500F0CAFB0021F7
:103880000120000500F0C5FB0BE05F48844208D131
:103890000121880500F0BDFB00210120800500F01A
:1038A000B8FB10BDF0B50A4600210023002400BF7C
:1038B0003DE001258D402B4615681D402C469C425D
:1038C00034D11579012D02D01579022D16D18568D4
:1038D0004F000326BE40B543856055794E00B54084
:1038E000866835438560858801268E40B54385808E
:1038F000858896798E40B6B23543858005684F003D
:103900000326BE40B543056015794E00B5400668F4
:1039100035430560C5684F000326BE40B543C5600A
:10392000D5794E00B540C6683543C560491C10299D
:10393000BFD3F0BD35490160002101710221417101
:1039400000218171C171704708B5012212040092F3
:10395000009A0A430092009AC261C161009AC26152
:10396000C2690092C269009208BD02460020138A13
:103970000B40002B01D0012000E0002070470146E1
:10398000088A704702460020938A0B40002B01D022
:10399000012000E0002070470146888A704781615D
:1039A000704701857047002A01D0816100E00185E0
:1039B000704781827047F0B5002300244D07EE0E5A
:1039C0001546B5402B46CD10AE0005462035AD5905
:1039D0004E07F70E0F26BE40B543CE10B600074681
:1039E0002037BD51CD10AE003D46AD591D432C468C
:1039F000CD10AD003E467451F0BD000000040048FB
:103A000000080048000C004800140048FFFF0000B8
:103A100000218278002A27D0274A03231B02D218CC
:103A200003789B109B00D15802789207D30EFF2297
:103A30009A400B469343194642789207120E037838
:103A40009B07DB0E9A4011431B4A03231B02D2182B
:103A500003789B109B00D1500278D306DB0E012225
:103A60009A40154B1A6007E00278D306DB0E01225C
:103A70009A40114B80331A607047002905D00F4AD5
:103A8000126902430D4B1A6104E00C4A1269824329
:103A90000A4B1A617047042806D1094909690422B2
:103AA0001143074A116105E0054909690422914360
:103AB000034A11617047000000E100E000ED00E002
:103AC00000E000E0FD48006801210843FB49086070
:103AD00008464068FA490840F849486008460068C6
:103AE000F8490840F5490860084600680121890442
:103AF0008843F2490860084640683F21090488432A
:103B0000EE4948600846C06A00090001C8620846DC
:103B1000006BFF2154318843E84908630846406B35
:103B20004008400048630020886070470021E34A55
:103B3000917011468870704710B50246002100232D
:103B400000205111002902D1DC4C23680BE001292F
:103B500002D1DA4C236A06E0022902D1D74C636A0B
:103B600001E0D64C636BD106C90E01248C401C4089
:103B7000002C01D0012000E0002010BD38B500204D
:103B800000900024002500BF1120FFF7D5FF054657
:103B90000098401C0090052109020098884201D03D
:103BA000002DF1D01120FFF7C7FF002801D001241C
:103BB00000E00024204638BD01460020BF4A1068BE
:103BC000F82302469A431046CA001043BB4A1060CD
:103BD0007047002806D0B949096801221143B74A45
:103BE000116005E0B549096849084900B34A116008
:103BF000704701460020B14A506BF82302469A43B1
:103C00001046CA001043AD4A50637047002806D0E2
:103C1000AA49496B01221143A84A516305E0A7490B
:103C2000496B49084900A54A51637047002806D0EE
:103C3000A249496B04229143A04A516305E09F4980
:103C4000496B042211439D4A516370479B49096A9D
:103C500049084900994A11621146096A04229143B0
:103C6000964A11621146096A0143116270479349ED
:103C7000096A18229143914A11621146096A014367
:103C800011627047002806D08C49496A012211430D
:103C90008A4A516205E08949496A49084900874AC8
:103CA00051627047854A52683D231B049A43834BF7
:103CB0005A601A46526803460B431A437F4B5A60B8
:103CC0007047002807D07D49096801221206114378
:103CD0007A4A116006E07949096801221206914387
:103CE000764A1160704701460020744AD06A000984
:103CF000000102460A431046704AD062704700280D
:103D000007D06E4909680122D20411436B4A116041
:103D100006E06A4909680122D2049143674A1160AA
:103D200070476649C871704701460020634A506871
:103D30008008800002460A431046604A506070477F
:103D40005E4840680C2108407047014600205B4AED
:103D50005068F02302469A43104602460A43104632
:103D6000564A5060704701460020544A5068072365
:103D70001B0202469A43104602460A4310464F4A27
:103D8000506070474D4949680122920391434B4A64
:103D900051601146496882B21143484A5160114648
:103DA000096B92159143454A11631146096B020C48
:103DB0001143424A116370474049096B40229143C5
:103DC0003E4A11631146096B0143116370473B4939
:103DD000096B10229143394A11631146096B014363
:103DE000116370473549096B89088900334A1163AB
:103DF0001146096B014311637047FEB50446002567
:103E0000002600200190009000272C4840680C21DB
:103E100008400546002D04D0042D05D0082D28D1DA
:103E200005E02948206027E02748206024E0234857
:103E300040680F2189040840064620484068012157
:103E4000090408400190B00C861C0198002803D199
:103E50001E48704320600BE01848C06A0007000F3E
:103E6000401C00901848009901F030FE704320601B
:103E700002E01548206000BF00BF10484068F021F4
:103E8000084005462D091248475D2068F8406060EB
:103E90000A48406807210902084005462D0A0C48D7
:103EA000475D6068F840A0600448006BFF21013165
:103EB0000840884210D00748E0601BE00010024034
:103EC0000CB8FFF8FFFFF6FE00127A0000093D0073
:103ED00025010020809FD500754840680121890395
:103EE0000840884203D0A0684008E06002E0A06873
:103EF0008008E0606E48006B40210840402802D0F6
:103F00006C48206102E00120C00320616848006B1A
:103F100010210840102802D06748606101E0206845
:103F200060616348006B8007800F002802D1A068A1
:103F3000A06119E05E48006B8007800F012802D164
:103F40002068A06110E05A48006B8007800F0228AB
:103F500002D18003A06107E05548006B8007800F05
:103F6000032801D15448A061FEBD5149096A0143AB
:103F70004F4A11627047002807D04D49096A012253
:103F8000D20311434A4A116206E04949096A0122F3
:103F9000D2039143464A11627047002807D0444932
:103FA000096A012212041143414A116206E04049A4
:103FB000096A0122120491433D4A116270470029A7
:103FC00005D03B4A52690243394B5A6104E0384AF2
:103FD00052698243364B5A617047002905D0344AF2
:103FE00092690243324B9A6104E0314A92698243FA
:103FF0002F4B9A617047002905D02D4AD2690243A0
:104000002B4BDA6104E02A4AD2698243284BDA61F9
:104010007047002905D0264A926A0243244B9A62CF
:1040200004E0234A926A8243214B9A627047002936
:1040300005D01F4AD26802431D4BDA6004E01C4AD7
:10404000D26882431A4BDA607047002905D0184ABB
:1040500012690243164B1A6104E0154A1269824341
:10406000134B1A617047002905D0114A527A024356
:104070000F4B5A7204E00E4A527A82430C4B5A722A
:1040800070470B48406A0121090608430849486205
:10409000704701460020064A92680A40002A01D073
:1040A000012000E00020704701498872704700003D
:1040B000001002401280000000127A0010B5044681
:1040C000FE48844208D10121C014FFF7B0FF00214F
:1040D000E014FFF7ACFF56E001208007844208D1CE
:1040E00001210846FFF7B1FF00210120FFF7ADFFD6
:1040F00049E0F348844208D101210220FFF7A5FFDF
:1041000000210220FFF7A1FF3DE0EE48844208D1E4
:1041100001211020FFF799FF00211020FFF795FFE4
:1041200031E0E948844208D101218015FFF78DFF75
:104130000021A015FFF789FF25E0E448844209D15A
:1041400001210804FFF773FF002101200004FFF79D
:104150006EFF18E0DE48844209D101214804FFF7D0
:1041600066FF002101204004FFF761FF0BE0D94802
:10417000844208D101218804FFF759FF0021012062
:104180008004FFF754FF10BD00220288CB4B9842F9
:1041900006D001239B07984202D0C94B984203D115
:1041A000CD4B1A404B881A43C64B984203D0CB4B99
:1041B0001A400B891A4302804B68C3620B8803853F
:1041C000BE4B984208D0C14B984205D0C04B984294
:1041D00002D0C04B984201D18B7A0386012383829F
:1041E00070470021C9434160002101800181418065
:1041F000817270470185828270470A4600210188DA
:10420000B54B19400B461343194601807047416274
:104210007047C16270470146486A70470146088D81
:104220007047002904D0028802231A43028004E068
:104230000288A94B6E331A4002807047002904D0CF
:10424000028804231A43028004E00288A24B6C33E4
:104250001A4002807047002904D0028880231A4344
:10426000028004E002889C4B103B1A400280704799
:104270000288994B68331A40028002880A43028000
:1042800070470288954B1A40028002880A430280D8
:104290007047002904D0028801231A43028004E0F9
:1042A00002888D4B6F331A40028070470A884B8812
:1042B0001A438B881A43CB881A430B891A434B89BC
:1042C0001A438B891A4344231A52704700210180F4
:1042D00041808180C18001814181818170470029B5
:1042E00007D04422125A0123DB031A4344231A52F3
:1042F00005E04422125A53045B0C442213527047C7
:1043000070B5002400220023058C734E6F363540B3
:104310000584028C8388048B6F4D2C40B51E2C4085
:104320000D882C43751E2A408D892A434D882A43C7
:10433000624DA84208D0654DA84205D0644DA84200
:1043400002D0644DA84212D1634D68352A40CD8910
:104350002A43614D6C352A408D882A435E4D903D3D
:104360002B405F4D2B400D8A2B434D8A2B4383807E
:1043700004838D684563028470BD70B500240022FB
:104380000023058C544E603635400584028C8388AA
:10439000048B544D2C40514D2C400D782D062D0C86
:1043A0002C434D4D50352A408D892D052D0C2A4327
:1043B0004D882D052D0C2A43404DA84219D1464D5C
:1043C000103D2A40CD892D052D0C2A43424D303514
:1043D0002A408D882D052D0C2A43434D2B40434DFB
:1043E0002B400D8AAD042D0C2B434D8AAD042D0CB2
:1043F0002B43838004838D688563028470BD70B510
:10440000002400220023058C334E903E3540058465
:10441000028C8388848B304D2C402F4D6D352C4081
:104420000D882C432E4D2A400D7B2D062D0C2A4342
:104430008D782D062D0C2A43204DA84217D12B4DE7
:104440002A408D7B2D062D0C2A43274D2A400D79BD
:104450002D062D0C2A43264D2B40264D2B400D8A30
:104460002D052D0C2B434D8A2D052D0C2B438380C0
:1044700084838D68C563028470BD70B500220023FB
:104480000024058C1A4E35400584038C8488828B69
:10449000144D2A40114D2A400D782D062D0C2A432B
:1044A000144D2B400D7B2D072D0C2B438D782D07A4
:1044B0002D0C2B43014DA84224D11DE0002C0140BE
:1044C0000004004000100040002000400040014077
:1044D00000440140004801408FFF0000FFFC000045
:1044E000FFFD0000FF8F0000FFFB0000FFF7000052
:1044F000FFEF0000FFDF0000FC4D2C400D8AAD05F2
:104500002D0C2C43848082838D680564038470BDE8
:10451000002101804180818081608181C18101828F
:104520004182704770B503460020002418461830B9
:1045300001258D40ACB21D8CA5431D84002901D0FE
:10454000082909D14D10281805687026B543056063
:104550000568154305600DE00D1F2D046D0C28182E
:10456000056807263603B543056005681606360C50
:104570003543056070BD4163704781637047C16317
:104580007047016470470A460021018BD84B1940DF
:104590000B4613431946018370470A460021018BDD
:1045A000D44B194013061B0C1943018370470A466C
:1045B0000021818BCE4B19400B4613431946818352
:1045C00070470A460021818BCA4B194013061B0C09
:1045D000194381837047002904D0828801231A433C
:1045E000828004E08288C24B6F331A408280704719
:1045F0000A460021018BBE4B683319400B4613431A
:104600001946018370470A460021018BBA4B1940B5
:1046100013061B0C1943018370470A460021818B46
:10462000B34B683319400B461343194681837047D7
:104630000A460021818BB04B194013061B0C19430D
:10464000818370470A460021018BA94B6C331940C6
:104650000B4613431946018370470A460021018B1C
:10466000A64B194013061B0C1943018370470A46D9
:104670000021818B9E4B6C3319400B461343194626
:10468000818370470A460021818B9C4B1940130699
:104690001B0C1943818370470A460021018B944B00
:1046A000103B19400B4613431946018370470A46D5
:1046B0000021018B4904490C13061B0C194301838B
:1046C00070470A460021818B894B103B19400B46ED
:1046D00013431946818370470A460021818B4904A0
:1046E000490C13061B0C1943818370470A460021AD
:1046F000018C7F4B6E3319400B46134319460184DE
:1047000070470A460021018C794B683319400B46EB
:1047100013431946018470470A460021018C744BEB
:104720005033194013051B0C1943018470470A4686
:104730000021018C6E4B103B194013051B0C1943D3
:10474000018470470A460021018C6D4B1940130605
:104750001B0C1943018470470A460021018C664BEB
:10476000194013061B0C1943018470470A460021A7
:10477000018C644B194013071B0C194301847047CB
:1047800002895B4B68331A40028102890A43028125
:10479000704730B5002301248C40A3B2048C9C43A5
:1047A0000484048C15468D40ADB22C43048430BD86
:1047B00030B5002304248C40A3B2048C9C430484B1
:1047C000048C15468D40ADB22C43048430BD0029C5
:1047D00004D0828804231A43828004E08288444BF8
:1047E0006C331A4082807047828B474B1A40828319
:1047F000828B0B061B0C1A4382837047F8B50C465C
:104800000021002500260096068C404F3E4006847D
:10481000818B058C2607360C00963D4E31401606DE
:10482000360C31431E07360C31433A4E35400127D2
:104830003F03009E3E43354381830584F8BD828B50
:104840002B4B64331A408283828B0A4382837047E6
:10485000F8B50C460021002500260096068C244F52
:10486000903F3E400684818B058C2606360C0096D0
:104870001F4E833E31401E05360C16433143264EF3
:104880003540FF270137009E3E4335438183058431
:10489000F8BD028B1C4B1A400283028B0B061B0CCB
:1048A0001A4302837047F8B50C4600210025002604
:1048B0000096068C0E4F60373E400684018B058CB7
:1048C0002605360C0096124E31401E07360C314339
:1048D0001606360C3143064E303E35401027009EFA
:1048E0003E43354301830584F8BD0000FFBF00004F
:1048F0008FFF0000FF8F0000FFF70000FFFB0000AC
:10490000FFFD0000FFDF0000FFF30000FFEF0000ED
:10491000FF0C0000FF5F0000FFF50000028BD84B8A
:104920001A400283028B0A4302837047F0B50C469B
:1049300000210025068CD24F0B373E400684018BA8
:10494000058CCF4EE73E31401E05360C16433143F1
:10495000CB4EB61C354001262643354301830584E2
:10496000F0BD70B505460C46208800280AD1238981
:10497000A28861882846FFF7D9FFE1882846FFF71B
:10498000CDFF25E0208804280AD12389A2886188E8
:104990002846FFF788FFE1882846FFF77AFF17E0EF
:1049A000208808280AD12389A28861882846FFF731
:1049B0004FFFE1882846FFF742FF09E02389A288DC
:1049C00061882846FFF71AFFE1882846FFF70CFFA9
:1049D00070BD002101804180012181800021C180C2
:1049E00001817047F8B505460C460026012760880E
:1049F000002801D1022600E00026A088012801D16C
:104A0000022700E001272088002814D12389A288EA
:104A100061882846FFF78AFFE1882846FFF77EFF76
:104A200023893A4631462846FFF73DFFE18828466C
:104A3000FFF72FFF13E02389A28861882846FFF73C
:104A400032FFE1882846FFF724FF23893A463146A2
:104A50002846FFF76BFFE1882846FFF75FFFF8BDA8
:104A60000146486B70470146886B70470146C86B2A
:104A700070470146086C7047002A03D083890B43B6
:104A8000838102E083898B438381704781827047F1
:104A900002460020138A0B40002B01D0012000E0C9
:104AA00000207047CA430282704730B5024600209A
:104AB00000230024158A0D402B4695890D402C4675
:104AC000002B03D0002C01D0012000E0002030BDDD
:104AD000CA430282704710B50B4613434824235241
:104AE00010BD002A03D083890B43838102E08389B0
:104AF0008B4383817047002904D0828808231A439E
:104B0000828004E082885E4B1B1D1A4082807047C1
:104B100001895B4A521D1140018170470A460021FC
:104B20000189574B643B19400B46134319460181D9
:104B3000704730B504460D4629462046FFF7EEFF84
:104B4000208907210843208130BDF8B504460D4671
:104B500016461F46602D06D13B46012231462046AF
:104B6000FFF7A1FE05E03B46012231462046FFF754
:104B7000DDFE29462046FFF7D1FF208907210843A3
:104B80002081F8BD30B50C4600210189C9B21D064F
:104B90002D0C154325432943018130BDFFB5054642
:104BA0000E46174600243A4631462846039BFFF737
:104BB000E9FF2C893248401D044007200443304857
:104BC00064380440702004432C81FFBDF0B50446D6
:104BD0000D4616461F463B46324629462046FFF7FD
:104BE000D1FF20890121890308432081F0BD8288FB
:104BF000234B643B1A40828082880A43828070473C
:104C000002891F4B5B1D1A40028102890A430281FF
:104C1000704702891A4B743B1A40028102890A4389
:104C200002817047F0B50C4600210025002601895D
:104C3000058B068C124F7F1D39400F46274339469E
:104C4000104F3D40FF2702373D430D4F9E3F3E40F2
:104C50001F053F0C17433E43018105830684F0BDC9
:104C6000002904D0828880231A43828004E082884D
:104C7000034B743B1A408280704750221152704798
:104C8000F3FF0000FCFC000010B50446F748844226
:104C900009D101218803FFF7CAF90021012080030F
:104CA000FFF7C5F90BE0F248844208D1012148041E
:104CB000FFF7CBF9002101204004FFF7C6F910BD32
:104CC000F0B589B005460E4600240020089000BFCC
:104CD00000BF28684008400028606C680321090371
:104CE000204688430446B06804436C602C68E14861
:104CF0000440F168706808433169084304432C603C
:104D0000AC680321090220468843044670690443C5
:104D1000AC606846FFF771F8D448854202D1069826
:104D2000089001E00298089028680121C903084012
:104D3000002809D0326851001923089A5A431046B6
:104D400000F0C4FE074608E0326891001923089A73
:104D50005A43104600F0BAFE07466421384600F078
:104D6000B5FE0401200964214843381A07902868D9
:104D70000121C903084000280AD00799C900084644
:104D80003230642100F0A2FE4007400F044309E0E6
:104D90000799090108463230642100F097FE0007A8
:104DA000000F0443AC8109B0F0BD4B21C901016083
:104DB000002141608160C1600C21016100214161DD
:104DC000704710B5002242680F2424021346A34303
:104DD0001A464C680B6823438C682343CC682343F2
:104DE0001A43426010BD0021016041608160C160D2
:104DF0007047002904D0026801231A43026003E0CF
:104E000002685208520002607047002A03D003680B
:104E10000B43036002E003688B4303607047002983
:104E200005D002680123DB031A43026004E0026834
:104E30000123DB039A4302607047002905D0826892
:104E40000123DB021A43826004E082680123DB0253
:104E50009A4382607047002905D042680123DB0431
:104E60001A43426004E042680123DB049A43426033
:104E70007047002905D0426801239B041A43426011
:104E800004E0426801239B049A4342607047002A71
:104E900003D043680B43436002E043688B434360A5
:104EA0007047002905D042680123DB031A434260A2
:104EB00004E042680123DB039A4342607047002903
:104EC00005D042680123DB051A43426004E04268D2
:104ED0000123DB059A43426070474269120E1206B5
:104EE000426142690A4342617047028AFF231B0202
:104EF0001A400282028A0A4302827047002904D0C3
:104F0000026802231A43026003E0026802239A4304
:104F100002607047826803231B059A43826082689F
:104F20000A4382607047002905D0426801231B05AF
:104F30001A43426004E0426801231B059A43426021
:104F40007047426803235B059A43426042680A4304
:104F500042607047C1690122D2039143C161704729
:104F6000CA05D20D028570470146888CC005C00D68
:104F7000704742681202120A426042680B061A43E6
:104F800042607047002905D0026801235B031A4381
:104F9000026004E0026801235B039A4302607047E9
:104FA00002680123DB029A43026002680A4302603E
:104FB0007047426810239A43426042680A43426045
:104FC0007047426820239A43426042680A43426025
:104FD0007047002905D0426801239B031A434260B1
:104FE00004E0426801239B039A4342607047002912
:104FF00004D0826808231A43826003E08268082391
:105000009A4382607047028AD2B20282028A0B02FD
:105010001A4302827047002904D0826820231A4371
:10502000826003E0826820239A43826070470029EF
:1050300004D0826810231A43826003E08268102340
:105040009A4382607047826807235B049A438260B8
:1050500082684B041A438260704742691202120A46
:10506000426142690B061A434261704700380140B1
:1050700000440040F3E9FFFF826804239A43826002
:1050800082680A4382607047002904D08268022344
:105090001A43826003E0826802239A438260704769
:1050A000002905D0826801239B031A43826004E033
:1050B000826801239B039A438260704782680123C0
:1050C000DB039A43826082680A4382607047026809
:1050D0001F235B059A43026002684B051A43026076
:1050E000704702681F231B049A43026002680B0486
:1050F0001A4302607047002A03D083680B43836021
:1051000002E083688B4383607047826801235B03FE
:105110009A43826082680A4382607047F8B503460A
:105120000024002600960025002018460E04340EA8
:10513000CEB200960127009EB7403D46022C01D119
:10514000001D02E0032C00D10830002A03D00668BD
:105150002E43066002E00668AE430660F8BD002AF2
:1051600003D0038B0B43038302E0038B8B43038346
:105170007047826801231B039A43826082680A4356
:105180008260704702460020D3690B40002B01D09B
:10519000012000E0002070470162704770B50246B0
:1051A0000B4600240021002500201E04350ED9B234
:1051B00001268E403146012D02D11668314006E0AD
:1051C000022D02D15668314001E0966831401C0C36
:1051D0000126A6403446D6693440002903D0002C6D
:1051E00001D0012000E0002070BD10B50023002296
:1051F0000B0C01249C402246026210BD10B50446EF
:10520000B548844207D101214015FEF710FF002167
:105210006015FEF70CFF10BD10B50022C268AF4B41
:105220001A400C7964030B6823438C682343CC68D1
:1052300023430C6923434C6923431A43C26010BDC6
:105240000021016001718160C160016141617047AD
:10525000002904D0826801231A43826003E0826837
:1052600002231A4382607047002A03D003690B436C
:10527000036102E003698B4303617047002905D095
:10528000C2680123DB031A43C26004E0C268012341
:10529000DB039A43C2607047002905D0C26801232E
:1052A0009B031A43C26004E0C26801239B039A4334
:1052B000C2607047002905D0C2680123DB051A438C
:1052C000C26004E0C2680123DB059A43C2607047F4
:1052D0000B0413430362704710B50A460021C168EE
:1052E0001F24A4060B46A34319460B461343194635
:1052F000C16010BD002905D0C26801239B051A4377
:10530000C26004E0C26801239B059A43C2607047F3
:10531000002807D0724989680122D2051143704ADA
:10532000916006E06E4989680122D20591436C4A7A
:1053300091607047002807D0694989680122920569
:105340001143674A916006E0654989680122920528
:105350009143634A91607047002807D0604989688B
:105360000122120611435E4A916006E05C49896899
:105370000122120691435A4A9160704710B50B46BC
:105380000021846A1C43846200BF0C4614432146FA
:10539000416110BD002905D0C26801235B031A4397
:1053A000C26004E0C26801235B039A43C260704795
:1053B000002905D0C26801231B041A43C26004E01F
:1053C000C26801231B049A43C2607047002905D0BC
:1053D000C26801231B031A43C26004E0C2680123B0
:1053E0001B039A43C260704730B50146002000227B
:1053F00000238C680125ED072C438C6000BF8C686E
:10540000E30FDB07521C0F242403A24201D0002B20
:10541000F5D18C68E40FE407002C01D1086C00E0A2
:10542000002030BD8168102211438160704781687F
:1054300004221143816070470146086C80B27047B6
:10544000002904D0C26801231A43C26003E0C26885
:1054500052085200C2607047C26802239A43C26079
:10546000C2680A43C2607047002A03D043680B43F6
:10547000436002E043688B434360704730B50246A7
:1054800000200023012424060C40002C05D0946841
:1054900001252D06AC43234600E013681C460C4052
:1054A000002C01D0012000E0002030BD01607047D9
:1054B00010B502460020002354680C4023461468AF
:1054C0000C40002C03D0002B01D0012000E0002074
:1054D00010BD0160704700000024014003D2FFFFAF
:1054E0000027014001460020FE4A106840084000A5
:1054F00002460A431046FB4A10607047002806D057
:10550000F849096810221143F64A116005E0F5498F
:10551000096810229143F34A116070470020F14955
:10552000096820221140002901D0012000E000205C
:105530007047EC48006980210840002804D0EA4800
:10554000E8494860E94848607047E64800698021BA
:105550000843E449086170470420E249C968C90763
:10556000C90F002901D0012010E0DE49C9681022CE
:105570001140002901D0022008E0DA49C96804225C
:105580001140002901D0032000E00420704710B52D
:1055900003460424FFF7E0FF044603E0FFF7DCFFC7
:1055A00004465B1E012C01D1002BF7D1002B00D14A
:1055B0000524204610BD30B5044604250B20000408
:1055C000FFF7E5FF0546042D17D1C6480069022103
:1055D0000843C44908610846446100694021084302
:1055E000C04908610B200004FFF7D1FF0546BD4804
:1055F000006902218843BB490861284630BD10B5C7
:1056000004240B200004FFF7C2FF0446042C16D12B
:10561000B448006904210843B2490861084600699A
:1056200040210843AF4908610B200004FFF7AFFF9A
:105630000446AC48006904218843AA490861204611
:1056400010BD78B506460C460425002000900B20BE
:105650000004FFF79CFF0546042D24D1A1480069F2
:10566000012108439F49086134800B200004FFF7A3
:105670008EFF0546042D10D1B01C0090200C00991F
:1056800008800B200004FFF782FF0546954800695B
:10569000400840009349086105E0924800694008CD
:1056A000400090490861284678BD70B504460D4613
:1056B00004260B200004FFF76AFF0646042E11D1D2
:1056C00088480069012108438649086125800B202C
:1056D0000004FFF75CFF064682480069400840006E
:1056E00080490861304670BD7E4800690121490249
:1056F0000840002804D17C487A4988607B4888604B
:10570000704778480069012149028843754908615A
:1057100070477448006901214903084371490861D1
:10572000704700206F49C96906221140002901D045
:10573000012000E00020704730B5AA250424FFF7BF
:10574000F0FF002800D000250B200004FFF71FFF0A
:105750000446042C36D1634800692021084361497E
:10576000086108460069402108435E4908610B2032
:105770000004FFF70CFF0446042C1BD159480069B4
:1057800020218843574908610846006910210843D1
:1057900054490861564805800B200004FFF7F7FEC6
:1057A0000446052C0ED04F480069102188434D490E
:1057B000086107E0052C05D04A480069102188439C
:1057C00048490861204630BDF0B50446494E374689
:1057D0000425E443E6B2FF2000022040070A0B2024
:1057E0000004FFF7D4FE0546042D21D13D48006991
:1057F000102108433B490861FF2E06D03C48068132
:105800000B200004FFF7C3FE0546042D08D1FF2F2F
:1058100006D0374847810B200004FFF7B8FE054645
:10582000052D05D02F480069102188432D490861B6
:105830002846F0BD30B5054604240B200004FFF7D0
:10584000A6FE0446042C36D12648006920210843D0
:10585000244908610846006940210843214908613C
:105860000B200004FFF793FE0446042C1BD11D48B7
:105870000069202188431B490861084600691021FE
:105880000843184908611A4805800B200004FFF7F7
:105890007EFE0446052C0ED0124800691021884374
:1058A0001049086107E0052C05D00E480069202149
:1058B00088430C490861204630BDF0B505460E46C8
:1058C000174604240B200004FFF761FE0446042C55
:1058D00024D1044800691021084302490861284680
:1058E000304309E00020024023016745AB89EFCD3A
:1058F00000F8FF1FFFFF0000F821394308437149FA
:1059000048800B200004FFF742FE0446052C05D01A
:105910006D480069102188436B4908612046F0BD3D
:1059200030B5054604240B200004FFF730FE044682
:10593000042C16D1644800691021084362490861AB
:10594000EF2028435F4948800B200004FFF71FFE2B
:105950000446052C05D05C480069102188435A494B
:105960000861204630BD30B5054604240B200004F4
:10597000FFF70DFE0446042C16D153480069102190
:10598000084351490861DF2028434E4948800B20D5
:105990000004FFF7FCFD0446052C05D04A480069C9
:1059A0001021884348490861204630BD30B505467E
:1059B00004240B200004FFF7EAFD0446042C16D152
:1059C00041480069102108433F490861BF2028432E
:1059D0003C4948800B200004FFF7D9FD0446052C04
:1059E00005D03948006910218843374908612046AD
:1059F00030BD30B5054604240B200004FFF7C7FD79
:105A00000446042C16D130480069102108432E4961
:105A10000861882028432B4948800B200004FFF7A9
:105A2000B6FD0446052C05D027480069102188439F
:105A300025490861204630BD70B505460E46042450
:105A40000B200004FFF7A3FD0446042C13D11E48CD
:105A50000069102108431C4908612E800B200004B6
:105A6000FFF795FD0446052C05D017480069102165
:105A7000884315490861204670BD1348C069000479
:105A8000000E70471048006A7047002905D00E4A82
:105A9000126902430C4B1A6104E00B4A12698243FB
:105AA000094B1A61704701460020074AD2680A4034
:105AB000002A01D0012000E0002070470249C860A0
:105AC0007047000000F8FF1F002002400022030979
:105AD0008B422CD3030A8B4211D300239C464EE009
